{
  "_format": "hh-sol-artifact-1",
  "contractName": "TokenTix",
  "sourceName": "contracts/TokenTix.sol",
  "abi": [
    {
      "inputs": [
        {
          "internalType": "string",
          "name": "_name",
          "type": "string"
        },
        {
          "internalType": "string",
          "name": "_symbol",
          "type": "string"
        }
      ],
      "stateMutability": "nonpayable",
      "type": "constructor"
    },
    {
      "anonymous": false,
      "inputs": [
        {
          "indexed": true,
          "internalType": "address",
          "name": "owner",
          "type": "address"
        },
        {
          "indexed": true,
          "internalType": "address",
          "name": "approved",
          "type": "address"
        },
        {
          "indexed": true,
          "internalType": "uint256",
          "name": "tokenId",
          "type": "uint256"
        }
      ],
      "name": "Approval",
      "type": "event"
    },
    {
      "anonymous": false,
      "inputs": [
        {
          "indexed": true,
          "internalType": "address",
          "name": "owner",
          "type": "address"
        },
        {
          "indexed": true,
          "internalType": "address",
          "name": "operator",
          "type": "address"
        },
        {
          "indexed": false,
          "internalType": "bool",
          "name": "approved",
          "type": "bool"
        }
      ],
      "name": "ApprovalForAll",
      "type": "event"
    },
    {
      "anonymous": false,
      "inputs": [
        {
          "indexed": true,
          "internalType": "address",
          "name": "from",
          "type": "address"
        },
        {
          "indexed": true,
          "internalType": "address",
          "name": "to",
          "type": "address"
        },
        {
          "indexed": true,
          "internalType": "uint256",
          "name": "tokenId",
          "type": "uint256"
        }
      ],
      "name": "Transfer",
      "type": "event"
    },
    {
      "inputs": [
        {
          "internalType": "address",
          "name": "to",
          "type": "address"
        },
        {
          "internalType": "uint256",
          "name": "tokenId",
          "type": "uint256"
        }
      ],
      "name": "approve",
      "outputs": [],
      "stateMutability": "nonpayable",
      "type": "function"
    },
    {
      "inputs": [
        {
          "internalType": "address",
          "name": "owner",
          "type": "address"
        }
      ],
      "name": "balanceOf",
      "outputs": [
        {
          "internalType": "uint256",
          "name": "",
          "type": "uint256"
        }
      ],
      "stateMutability": "view",
      "type": "function"
    },
    {
      "inputs": [
        {
          "internalType": "uint256",
          "name": "tokenId",
          "type": "uint256"
        }
      ],
      "name": "getApproved",
      "outputs": [
        {
          "internalType": "address",
          "name": "",
          "type": "address"
        }
      ],
      "stateMutability": "view",
      "type": "function"
    },
    {
      "inputs": [
        {
          "internalType": "uint256",
          "name": "_id",
          "type": "uint256"
        }
      ],
      "name": "getMovie",
      "outputs": [
        {
          "components": [
            {
              "internalType": "uint256",
              "name": "id",
              "type": "uint256"
            },
            {
              "internalType": "string",
              "name": "name",
              "type": "string"
            },
            {
              "internalType": "uint256",
              "name": "cost",
              "type": "uint256"
            },
            {
              "internalType": "uint256",
              "name": "tickets",
              "type": "uint256"
            },
            {
              "internalType": "uint256",
              "name": "maxTickets",
              "type": "uint256"
            },
            {
              "internalType": "string",
              "name": "date",
              "type": "string"
            },
            {
              "internalType": "string",
              "name": "time",
              "type": "string"
            },
            {
              "internalType": "string",
              "name": "loaction",
              "type": "string"
            }
          ],
          "internalType": "struct TokenTix.Movie",
          "name": "",
          "type": "tuple"
        }
      ],
      "stateMutability": "view",
      "type": "function"
    },
    {
      "inputs": [
        {
          "internalType": "uint256",
          "name": "_id",
          "type": "uint256"
        }
      ],
      "name": "getSeatsTaken",
      "outputs": [
        {
          "internalType": "uint256[]",
          "name": "",
          "type": "uint256[]"
        }
      ],
      "stateMutability": "view",
      "type": "function"
    },
    {
      "inputs": [
        {
          "internalType": "uint256",
          "name": "",
          "type": "uint256"
        },
        {
          "internalType": "address",
          "name": "",
          "type": "address"
        }
      ],
      "name": "hasBought",
      "outputs": [
        {
          "internalType": "bool",
          "name": "",
          "type": "bool"
        }
      ],
      "stateMutability": "view",
      "type": "function"
    },
    {
      "inputs": [
        {
          "internalType": "address",
          "name": "owner",
          "type": "address"
        },
        {
          "internalType": "address",
          "name": "operator",
          "type": "address"
        }
      ],
      "name": "isApprovedForAll",
      "outputs": [
        {
          "internalType": "bool",
          "name": "",
          "type": "bool"
        }
      ],
      "stateMutability": "view",
      "type": "function"
    },
    {
      "inputs": [
        {
          "internalType": "string",
          "name": "_name",
          "type": "string"
        },
        {
          "internalType": "uint256",
          "name": "_cost",
          "type": "uint256"
        },
        {
          "internalType": "uint256",
          "name": "_maxTickets",
          "type": "uint256"
        },
        {
          "internalType": "string",
          "name": "_date",
          "type": "string"
        },
        {
          "internalType": "string",
          "name": "_time",
          "type": "string"
        },
        {
          "internalType": "string",
          "name": "_loaction",
          "type": "string"
        }
      ],
      "name": "list",
      "outputs": [],
      "stateMutability": "nonpayable",
      "type": "function"
    },
    {
      "inputs": [
        {
          "internalType": "uint256",
          "name": "_id",
          "type": "uint256"
        },
        {
          "internalType": "uint256",
          "name": "_seat",
          "type": "uint256"
        }
      ],
      "name": "mint",
      "outputs": [],
      "stateMutability": "payable",
      "type": "function"
    },
    {
      "inputs": [],
      "name": "moviesCount",
      "outputs": [
        {
          "internalType": "uint256",
          "name": "",
          "type": "uint256"
        }
      ],
      "stateMutability": "view",
      "type": "function"
    },
    {
      "inputs": [],
      "name": "name",
      "outputs": [
        {
          "internalType": "string",
          "name": "",
          "type": "string"
        }
      ],
      "stateMutability": "view",
      "type": "function"
    },
    {
      "inputs": [],
      "name": "owner",
      "outputs": [
        {
          "internalType": "address",
          "name": "",
          "type": "address"
        }
      ],
      "stateMutability": "view",
      "type": "function"
    },
    {
      "inputs": [
        {
          "internalType": "uint256",
          "name": "tokenId",
          "type": "uint256"
        }
      ],
      "name": "ownerOf",
      "outputs": [
        {
          "internalType": "address",
          "name": "",
          "type": "address"
        }
      ],
      "stateMutability": "view",
      "type": "function"
    },
    {
      "inputs": [
        {
          "internalType": "address",
          "name": "from",
          "type": "address"
        },
        {
          "internalType": "address",
          "name": "to",
          "type": "address"
        },
        {
          "internalType": "uint256",
          "name": "tokenId",
          "type": "uint256"
        }
      ],
      "name": "safeTransferFrom",
      "outputs": [],
      "stateMutability": "nonpayable",
      "type": "function"
    },
    {
      "inputs": [
        {
          "internalType": "address",
          "name": "from",
          "type": "address"
        },
        {
          "internalType": "address",
          "name": "to",
          "type": "address"
        },
        {
          "internalType": "uint256",
          "name": "tokenId",
          "type": "uint256"
        },
        {
          "internalType": "bytes",
          "name": "data",
          "type": "bytes"
        }
      ],
      "name": "safeTransferFrom",
      "outputs": [],
      "stateMutability": "nonpayable",
      "type": "function"
    },
    {
      "inputs": [
        {
          "internalType": "uint256",
          "name": "",
          "type": "uint256"
        },
        {
          "internalType": "uint256",
          "name": "",
          "type": "uint256"
        }
      ],
      "name": "seatTrx",
      "outputs": [
        {
          "internalType": "address",
          "name": "",
          "type": "address"
        }
      ],
      "stateMutability": "view",
      "type": "function"
    },
    {
      "inputs": [
        {
          "internalType": "address",
          "name": "operator",
          "type": "address"
        },
        {
          "internalType": "bool",
          "name": "approved",
          "type": "bool"
        }
      ],
      "name": "setApprovalForAll",
      "outputs": [],
      "stateMutability": "nonpayable",
      "type": "function"
    },
    {
      "inputs": [
        {
          "internalType": "bytes4",
          "name": "interfaceId",
          "type": "bytes4"
        }
      ],
      "name": "supportsInterface",
      "outputs": [
        {
          "internalType": "bool",
          "name": "",
          "type": "bool"
        }
      ],
      "stateMutability": "view",
      "type": "function"
    },
    {
      "inputs": [],
      "name": "symbol",
      "outputs": [
        {
          "internalType": "string",
          "name": "",
          "type": "string"
        }
      ],
      "stateMutability": "view",
      "type": "function"
    },
    {
      "inputs": [
        {
          "internalType": "uint256",
          "name": "tokenId",
          "type": "uint256"
        }
      ],
      "name": "tokenURI",
      "outputs": [
        {
          "internalType": "string",
          "name": "",
          "type": "string"
        }
      ],
      "stateMutability": "view",
      "type": "function"
    },
    {
      "inputs": [],
      "name": "totalSupply",
      "outputs": [
        {
          "internalType": "uint256",
          "name": "",
          "type": "uint256"
        }
      ],
      "stateMutability": "view",
      "type": "function"
    },
    {
      "inputs": [
        {
          "internalType": "address",
          "name": "from",
          "type": "address"
        },
        {
          "internalType": "address",
          "name": "to",
          "type": "address"
        },
        {
          "internalType": "uint256",
          "name": "tokenId",
          "type": "uint256"
        }
      ],
      "name": "transferFrom",
      "outputs": [],
      "stateMutability": "nonpayable",
      "type": "function"
    },
    {
      "inputs": [],
      "name": "withdraw",
      "outputs": [],
      "stateMutability": "nonpayable",
      "type": "function"
    }
  ],
  "bytecode": "0x60806040523480156200001157600080fd5b5060405162003cd938038062003cd983398181016040528101906200003791906200023b565b818181600090816200004a91906200050b565b5080600190816200005c91906200050b565b50505033600660006101000a81548173ffffffffffffffffffffffffffffffffffffffff021916908373ffffffffffffffffffffffffffffffffffffffff1602179055505050620005f2565b6000604051905090565b600080fd5b600080fd5b600080fd5b600080fd5b6000601f19601f8301169050919050565b7f4e487b7100000000000000000000000000000000000000000000000000000000600052604160045260246000fd5b6200011182620000c6565b810181811067ffffffffffffffff82111715620001335762000132620000d7565b5b80604052505050565b600062000148620000a8565b905062000156828262000106565b919050565b600067ffffffffffffffff821115620001795762000178620000d7565b5b6200018482620000c6565b9050602081019050919050565b60005b83811015620001b157808201518184015260208101905062000194565b60008484015250505050565b6000620001d4620001ce846200015b565b6200013c565b905082815260208101848484011115620001f357620001f2620000c1565b5b6200020084828562000191565b509392505050565b600082601f83011262000220576200021f620000bc565b5b815162000232848260208601620001bd565b91505092915050565b60008060408385031215620002555762000254620000b2565b5b600083015167ffffffffffffffff811115620002765762000275620000b7565b5b620002848582860162000208565b925050602083015167ffffffffffffffff811115620002a857620002a7620000b7565b5b620002b68582860162000208565b9150509250929050565b600081519050919050565b7f4e487b7100000000000000000000000000000000000000000000000000000000600052602260045260246000fd5b600060028204905060018216806200031357607f821691505b602082108103620003295762000328620002cb565b5b50919050565b60008190508160005260206000209050919050565b60006020601f8301049050919050565b600082821b905092915050565b600060088302620003937fffffffffffffffffffffffffffffffffffffffffffffffffffffffffffffffff8262000354565b6200039f868362000354565b95508019841693508086168417925050509392505050565b6000819050919050565b6000819050919050565b6000620003ec620003e6620003e084620003b7565b620003c1565b620003b7565b9050919050565b6000819050919050565b6200040883620003cb565b620004206200041782620003f3565b84845462000361565b825550505050565b600090565b6200043762000428565b62000444818484620003fd565b505050565b5b818110156200046c57620004606000826200042d565b6001810190506200044a565b5050565b601f821115620004bb5762000485816200032f565b620004908462000344565b81016020851015620004a0578190505b620004b8620004af8562000344565b83018262000449565b50505b505050565b600082821c905092915050565b6000620004e060001984600802620004c0565b1980831691505092915050565b6000620004fb8383620004cd565b9150826002028217905092915050565b6200051682620002c0565b67ffffffffffffffff811115620005325762000531620000d7565b5b6200053e8254620002fa565b6200054b82828562000470565b600060209050601f8311600181146200058357600084156200056e578287015190505b6200057a8582620004ed565b865550620005ea565b601f19841662000593866200032f565b60005b82811015620005bd5784890151825560018201915060208501945060208101905062000596565b86831015620005dd5784890151620005d9601f891682620004cd565b8355505b6001600288020188555050505b505050505050565b6136d780620006026000396000f3fe6080604052600436106101405760003560e01c806342842e0e116100b65780639cb04aef1161006f5780639cb04aef14610461578063a22cb4651461049e578063aed733e2146104c7578063b88d4fde14610504578063c87b56dd1461052d578063e985e9c51461056a57610140565b806342842e0e1461033f5780636352211e1461036857806370a08231146103a55780638da5cb5b146103e257806395d89b411461040d5780639a382f0f1461043857610140565b80630ef7ec74116101085780630ef7ec741461023e578063179ffe761461027b57806318160ddd146102b85780631b2ef1ca146102e357806323b872dd146102ff5780633ccfd60b1461032857610140565b806301ffc9a71461014557806306fdde0314610182578063081812fc146101ad57806308bbbc9c146101ea578063095ea7b314610215575b600080fd5b34801561015157600080fd5b5061016c60048036038101906101679190612235565b6105a7565b604051610179919061227d565b60405180910390f35b34801561018e57600080fd5b50610197610689565b6040516101a49190612328565b60405180910390f35b3480156101b957600080fd5b506101d460048036038101906101cf9190612380565b61071b565b6040516101e191906123ee565b60405180910390f35b3480156101f657600080fd5b506101ff610761565b60405161020c9190612418565b60405180910390f35b34801561022157600080fd5b5061023c6004803603810190610237919061245f565b610767565b005b34801561024a57600080fd5b5061026560048036038101906102609190612380565b61087e565b604051610272919061255d565b60405180910390f35b34801561028757600080fd5b506102a2600480360381019061029d9190612380565b6108e9565b6040516102af919061268e565b60405180910390f35b3480156102c457600080fd5b506102cd610b87565b6040516102da9190612418565b60405180910390f35b6102fd60048036038101906102f891906126b0565b610b8d565b005b34801561030b57600080fd5b50610326600480360381019061032191906126f0565b610d19565b005b34801561033457600080fd5b5061033d610d79565b005b34801561034b57600080fd5b50610366600480360381019061036191906126f0565b610e6e565b005b34801561037457600080fd5b5061038f600480360381019061038a9190612380565b610e8e565b60405161039c91906123ee565b60405180910390f35b3480156103b157600080fd5b506103cc60048036038101906103c79190612743565b610f14565b6040516103d99190612418565b60405180910390f35b3480156103ee57600080fd5b506103f7610fcb565b60405161040491906123ee565b60405180910390f35b34801561041957600080fd5b50610422610ff1565b60405161042f9190612328565b60405180910390f35b34801561044457600080fd5b5061045f600480360381019061045a91906128a5565b611083565b005b34801561046d57600080fd5b50610488600480360381019061048391906129a2565b6111d1565b604051610495919061227d565b60405180910390f35b3480156104aa57600080fd5b506104c560048036038101906104c09190612a0e565b611200565b005b3480156104d357600080fd5b506104ee60048036038101906104e991906126b0565b611216565b6040516104fb91906123ee565b60405180910390f35b34801561051057600080fd5b5061052b60048036038101906105269190612aef565b611258565b005b34801561053957600080fd5b50610554600480360381019061054f9190612380565b6112ba565b6040516105619190612328565b60405180910390f35b34801561057657600080fd5b50610591600480360381019061058c9190612b72565b611322565b60405161059e919061227d565b60405180910390f35b60007f80ac58cd000000000000000000000000000000000000000000000000000000007bffffffffffffffffffffffffffffffffffffffffffffffffffffffff1916827bffffffffffffffffffffffffffffffffffffffffffffffffffffffff1916148061067257507f5b5e139f000000000000000000000000000000000000000000000000000000007bffffffffffffffffffffffffffffffffffffffffffffffffffffffff1916827bffffffffffffffffffffffffffffffffffffffffffffffffffffffff1916145b806106825750610681826113b6565b5b9050919050565b60606000805461069890612be1565b80601f01602080910402602001604051908101604052809291908181526020018280546106c490612be1565b80156107115780601f106106e657610100808354040283529160200191610711565b820191906000526020600020905b8154815290600101906020018083116106f457829003601f168201915b5050505050905090565b600061072682611420565b6004600083815260200190815260200160002060009054906101000a900473ffffffffffffffffffffffffffffffffffffffff169050919050565b60075481565b600061077282610e8e565b90508073ffffffffffffffffffffffffffffffffffffffff168373ffffffffffffffffffffffffffffffffffffffff16036107e2576040517f08c379a00000000000000000000000000000000000000000000000000000000081526004016107d990612c84565b60405180910390fd5b8073ffffffffffffffffffffffffffffffffffffffff1661080161146b565b73ffffffffffffffffffffffffffffffffffffffff161480610830575061082f8161082a61146b565b611322565b5b61086f576040517f08c379a000000000000000000000000000000000000000000000000000000000815260040161086690612d16565b60405180910390fd5b6108798383611473565b505050565b6060600b60008381526020019081526020016000208054806020026020016040519081016040528092919081815260200182805480156108dd57602002820191906000526020600020905b8154815260200190600101908083116108c9575b50505050509050919050565b6108f1612184565b60096000838152602001908152602001600020604051806101000160405290816000820154815260200160018201805461092a90612be1565b80601f016020809104026020016040519081016040528092919081815260200182805461095690612be1565b80156109a35780601f10610978576101008083540402835291602001916109a3565b820191906000526020600020905b81548152906001019060200180831161098657829003601f168201915b505050505081526020016002820154815260200160038201548152602001600482015481526020016005820180546109da90612be1565b80601f0160208091040260200160405190810160405280929190818152602001828054610a0690612be1565b8015610a535780601f10610a2857610100808354040283529160200191610a53565b820191906000526020600020905b815481529060010190602001808311610a3657829003601f168201915b50505050508152602001600682018054610a6c90612be1565b80601f0160208091040260200160405190810160405280929190818152602001828054610a9890612be1565b8015610ae55780601f10610aba57610100808354040283529160200191610ae5565b820191906000526020600020905b815481529060010190602001808311610ac857829003601f168201915b50505050508152602001600782018054610afe90612be1565b80601f0160208091040260200160405190810160405280929190818152602001828054610b2a90612be1565b8015610b775780601f10610b4c57610100808354040283529160200191610b77565b820191906000526020600020905b815481529060010190602001808311610b5a57829003601f168201915b5050505050815250509050919050565b60085481565b60008203610b9a57600080fd5b6009600083815260200190815260200160002060020154341015610bbd57600080fd5b6001600960008481526020019081526020016000206003016000828254610be49190612d65565b925050819055506001600c600084815260200190815260200160002060003373ffffffffffffffffffffffffffffffffffffffff1673ffffffffffffffffffffffffffffffffffffffff16815260200190815260200160002060006101000a81548160ff02191690831515021790555033600a6000848152602001908152602001600020600083815260200190815260200160002060006101000a81548173ffffffffffffffffffffffffffffffffffffffff021916908373ffffffffffffffffffffffffffffffffffffffff160217905550600b600083815260200190815260200160002081908060018154018082558091505060019003906000526020600020016000909190919091505560086000815480929190610d0490612d99565b9190505550610d153360085461152c565b5050565b610d2a610d2461146b565b8261154a565b610d69576040517f08c379a0000000000000000000000000000000000000000000000000000000008152600401610d6090612e53565b60405180910390fd5b610d748383836115df565b505050565b600660009054906101000a900473ffffffffffffffffffffffffffffffffffffffff1673ffffffffffffffffffffffffffffffffffffffff163373ffffffffffffffffffffffffffffffffffffffff1614610dd357600080fd5b6000600660009054906101000a900473ffffffffffffffffffffffffffffffffffffffff1673ffffffffffffffffffffffffffffffffffffffff1647604051610e1b90612ea4565b60006040518083038185875af1925050503d8060008114610e58576040519150601f19603f3d011682016040523d82523d6000602084013e610e5d565b606091505b5050905080610e6b57600080fd5b50565b610e8983838360405180602001604052806000815250611258565b505050565b600080610e9a836118d8565b9050600073ffffffffffffffffffffffffffffffffffffffff168173ffffffffffffffffffffffffffffffffffffffff1603610f0b576040517f08c379a0000000000000000000000000000000000000000000000000000000008152600401610f0290612f05565b60405180910390fd5b80915050919050565b60008073ffffffffffffffffffffffffffffffffffffffff168273ffffffffffffffffffffffffffffffffffffffff1603610f84576040517f08c379a0000000000000000000000000000000000000000000000000000000008152600401610f7b90612f97565b60405180910390fd5b600360008373ffffffffffffffffffffffffffffffffffffffff1673ffffffffffffffffffffffffffffffffffffffff168152602001908152602001600020549050919050565b600660009054906101000a900473ffffffffffffffffffffffffffffffffffffffff1681565b60606001805461100090612be1565b80601f016020809104026020016040519081016040528092919081815260200182805461102c90612be1565b80156110795780601f1061104e57610100808354040283529160200191611079565b820191906000526020600020905b81548152906001019060200180831161105c57829003601f168201915b5050505050905090565b600660009054906101000a900473ffffffffffffffffffffffffffffffffffffffff1673ffffffffffffffffffffffffffffffffffffffff163373ffffffffffffffffffffffffffffffffffffffff16146110dd57600080fd5b600760008154809291906110f090612d99565b91905055506040518061010001604052806007548152602001878152602001868152602001858152602001858152602001848152602001838152602001828152506009600060075481526020019081526020016000206000820151816000015560208201518160010190816111659190613163565b5060408201518160020155606082015181600301556080820151816004015560a08201518160050190816111999190613163565b5060c08201518160060190816111af9190613163565b5060e08201518160070190816111c59190613163565b50905050505050505050565b600c6020528160005260406000206020528060005260406000206000915091509054906101000a900460ff1681565b61121261120b61146b565b8383611915565b5050565b600a6020528160005260406000206020528060005260406000206000915091509054906101000a900473ffffffffffffffffffffffffffffffffffffffff1681565b61126961126361146b565b8361154a565b6112a8576040517f08c379a000000000000000000000000000000000000000000000000000000000815260040161129f90612e53565b60405180910390fd5b6112b484848484611a81565b50505050565b60606112c582611420565b60006112cf611add565b905060008151116112ef576040518060200160405280600081525061131a565b806112f984611af4565b60405160200161130a929190613271565b6040516020818303038152906040525b915050919050565b6000600560008473ffffffffffffffffffffffffffffffffffffffff1673ffffffffffffffffffffffffffffffffffffffff16815260200190815260200160002060008373ffffffffffffffffffffffffffffffffffffffff1673ffffffffffffffffffffffffffffffffffffffff16815260200190815260200160002060009054906101000a900460ff16905092915050565b60007f01ffc9a7000000000000000000000000000000000000000000000000000000007bffffffffffffffffffffffffffffffffffffffffffffffffffffffff1916827bffffffffffffffffffffffffffffffffffffffffffffffffffffffff1916149050919050565b61142981611bc2565b611468576040517f08c379a000000000000000000000000000000000000000000000000000000000815260040161145f90612f05565b60405180910390fd5b50565b600033905090565b816004600083815260200190815260200160002060006101000a81548173ffffffffffffffffffffffffffffffffffffffff021916908373ffffffffffffffffffffffffffffffffffffffff160217905550808273ffffffffffffffffffffffffffffffffffffffff166114e683610e8e565b73ffffffffffffffffffffffffffffffffffffffff167f8c5be1e5ebec7d5bd14f71427d1e84f3dd0314c0f7b2291e5b200ac8c7c3b92560405160405180910390a45050565b611546828260405180602001604052806000815250611c03565b5050565b60008061155683610e8e565b90508073ffffffffffffffffffffffffffffffffffffffff168473ffffffffffffffffffffffffffffffffffffffff16148061159857506115978185611322565b5b806115d657508373ffffffffffffffffffffffffffffffffffffffff166115be8461071b565b73ffffffffffffffffffffffffffffffffffffffff16145b91505092915050565b8273ffffffffffffffffffffffffffffffffffffffff166115ff82610e8e565b73ffffffffffffffffffffffffffffffffffffffff1614611655576040517f08c379a000000000000000000000000000000000000000000000000000000000815260040161164c90613307565b60405180910390fd5b600073ffffffffffffffffffffffffffffffffffffffff168273ffffffffffffffffffffffffffffffffffffffff16036116c4576040517f08c379a00000000000000000000000000000000000000000000000000000000081526004016116bb90613399565b60405180910390fd5b6116d18383836001611c5e565b8273ffffffffffffffffffffffffffffffffffffffff166116f182610e8e565b73ffffffffffffffffffffffffffffffffffffffff1614611747576040517f08c379a000000000000000000000000000000000000000000000000000000000815260040161173e90613307565b60405180910390fd5b6004600082815260200190815260200160002060006101000a81549073ffffffffffffffffffffffffffffffffffffffff02191690556001600360008573ffffffffffffffffffffffffffffffffffffffff1673ffffffffffffffffffffffffffffffffffffffff168152602001908152602001600020600082825403925050819055506001600360008473ffffffffffffffffffffffffffffffffffffffff1673ffffffffffffffffffffffffffffffffffffffff16815260200190815260200160002060008282540192505081905550816002600083815260200190815260200160002060006101000a81548173ffffffffffffffffffffffffffffffffffffffff021916908373ffffffffffffffffffffffffffffffffffffffff160217905550808273ffffffffffffffffffffffffffffffffffffffff168473ffffffffffffffffffffffffffffffffffffffff167fddf252ad1be2c89b69c2b068fc378daa952ba7f163c4a11628f55a4df523b3ef60405160405180910390a46118d38383836001611c64565b505050565b60006002600083815260200190815260200160002060009054906101000a900473ffffffffffffffffffffffffffffffffffffffff169050919050565b8173ffffffffffffffffffffffffffffffffffffffff168373ffffffffffffffffffffffffffffffffffffffff1603611983576040517f08c379a000000000000000000000000000000000000000000000000000000000815260040161197a90613405565b60405180910390fd5b80600560008573ffffffffffffffffffffffffffffffffffffffff1673ffffffffffffffffffffffffffffffffffffffff16815260200190815260200160002060008473ffffffffffffffffffffffffffffffffffffffff1673ffffffffffffffffffffffffffffffffffffffff16815260200190815260200160002060006101000a81548160ff0219169083151502179055508173ffffffffffffffffffffffffffffffffffffffff168373ffffffffffffffffffffffffffffffffffffffff167f17307eab39ab6107e8899845ad3d59bd9653f200f220920489ca2b5937696c3183604051611a74919061227d565b60405180910390a3505050565b611a8c8484846115df565b611a9884848484611c6a565b611ad7576040517f08c379a0000000000000000000000000000000000000000000000000000000008152600401611ace90613497565b60405180910390fd5b50505050565b606060405180602001604052806000815250905090565b606060006001611b0384611df1565b01905060008167ffffffffffffffff811115611b2257611b2161277a565b5b6040519080825280601f01601f191660200182016040528015611b545781602001600182028036833780820191505090505b509050600082602001820190505b600115611bb7578080600190039150507f3031323334353637383961626364656600000000000000000000000000000000600a86061a8153600a8581611bab57611baa6134b7565b5b04945060008503611b62575b819350505050919050565b60008073ffffffffffffffffffffffffffffffffffffffff16611be4836118d8565b73ffffffffffffffffffffffffffffffffffffffff1614159050919050565b611c0d8383611f44565b611c1a6000848484611c6a565b611c59576040517f08c379a0000000000000000000000000000000000000000000000000000000008152600401611c5090613497565b60405180910390fd5b505050565b50505050565b50505050565b6000611c8b8473ffffffffffffffffffffffffffffffffffffffff16612161565b15611de4578373ffffffffffffffffffffffffffffffffffffffff1663150b7a02611cb461146b565b8786866040518563ffffffff1660e01b8152600401611cd6949392919061353b565b6020604051808303816000875af1925050508015611d1257506040513d601f19601f82011682018060405250810190611d0f919061359c565b60015b611d94573d8060008114611d42576040519150601f19603f3d011682016040523d82523d6000602084013e611d47565b606091505b506000815103611d8c576040517f08c379a0000000000000000000000000000000000000000000000000000000008152600401611d8390613497565b60405180910390fd5b805181602001fd5b63150b7a0260e01b7bffffffffffffffffffffffffffffffffffffffffffffffffffffffff1916817bffffffffffffffffffffffffffffffffffffffffffffffffffffffff191614915050611de9565b600190505b949350505050565b600080600090507a184f03e93ff9f4daa797ed6e38ed64bf6a1f0100000000000000008310611e4f577a184f03e93ff9f4daa797ed6e38ed64bf6a1f0100000000000000008381611e4557611e446134b7565b5b0492506040810190505b6d04ee2d6d415b85acef81000000008310611e8c576d04ee2d6d415b85acef81000000008381611e8257611e816134b7565b5b0492506020810190505b662386f26fc100008310611ebb57662386f26fc100008381611eb157611eb06134b7565b5b0492506010810190505b6305f5e1008310611ee4576305f5e1008381611eda57611ed96134b7565b5b0492506008810190505b6127108310611f09576127108381611eff57611efe6134b7565b5b0492506004810190505b60648310611f2c5760648381611f2257611f216134b7565b5b0492506002810190505b600a8310611f3b576001810190505b80915050919050565b600073ffffffffffffffffffffffffffffffffffffffff168273ffffffffffffffffffffffffffffffffffffffff1603611fb3576040517f08c379a0000000000000000000000000000000000000000000000000000000008152600401611faa90613615565b60405180910390fd5b611fbc81611bc2565b15611ffc576040517f08c379a0000000000000000000000000000000000000000000000000000000008152600401611ff390613681565b60405180910390fd5b61200a600083836001611c5e565b61201381611bc2565b15612053576040517f08c379a000000000000000000000000000000000000000000000000000000000815260040161204a90613681565b60405180910390fd5b6001600360008473ffffffffffffffffffffffffffffffffffffffff1673ffffffffffffffffffffffffffffffffffffffff16815260200190815260200160002060008282540192505081905550816002600083815260200190815260200160002060006101000a81548173ffffffffffffffffffffffffffffffffffffffff021916908373ffffffffffffffffffffffffffffffffffffffff160217905550808273ffffffffffffffffffffffffffffffffffffffff16600073ffffffffffffffffffffffffffffffffffffffff167fddf252ad1be2c89b69c2b068fc378daa952ba7f163c4a11628f55a4df523b3ef60405160405180910390a461215d600083836001611c64565b5050565b6000808273ffffffffffffffffffffffffffffffffffffffff163b119050919050565b60405180610100016040528060008152602001606081526020016000815260200160008152602001600081526020016060815260200160608152602001606081525090565b6000604051905090565b600080fd5b600080fd5b60007fffffffff0000000000000000000000000000000000000000000000000000000082169050919050565b612212816121dd565b811461221d57600080fd5b50565b60008135905061222f81612209565b92915050565b60006020828403121561224b5761224a6121d3565b5b600061225984828501612220565b91505092915050565b60008115159050919050565b61227781612262565b82525050565b6000602082019050612292600083018461226e565b92915050565b600081519050919050565b600082825260208201905092915050565b60005b838110156122d25780820151818401526020810190506122b7565b60008484015250505050565b6000601f19601f8301169050919050565b60006122fa82612298565b61230481856122a3565b93506123148185602086016122b4565b61231d816122de565b840191505092915050565b6000602082019050818103600083015261234281846122ef565b905092915050565b6000819050919050565b61235d8161234a565b811461236857600080fd5b50565b60008135905061237a81612354565b92915050565b600060208284031215612396576123956121d3565b5b60006123a48482850161236b565b91505092915050565b600073ffffffffffffffffffffffffffffffffffffffff82169050919050565b60006123d8826123ad565b9050919050565b6123e8816123cd565b82525050565b600060208201905061240360008301846123df565b92915050565b6124128161234a565b82525050565b600060208201905061242d6000830184612409565b92915050565b61243c816123cd565b811461244757600080fd5b50565b60008135905061245981612433565b92915050565b60008060408385031215612476576124756121d3565b5b60006124848582860161244a565b92505060206124958582860161236b565b9150509250929050565b600081519050919050565b600082825260208201905092915050565b6000819050602082019050919050565b6124d48161234a565b82525050565b60006124e683836124cb565b60208301905092915050565b6000602082019050919050565b600061250a8261249f565b61251481856124aa565b935061251f836124bb565b8060005b8381101561255057815161253788826124da565b9750612542836124f2565b925050600181019050612523565b5085935050505092915050565b6000602082019050818103600083015261257781846124ff565b905092915050565b600082825260208201905092915050565b600061259b82612298565b6125a5818561257f565b93506125b58185602086016122b4565b6125be816122de565b840191505092915050565b6000610100830160008301516125e260008601826124cb565b50602083015184820360208601526125fa8282612590565b915050604083015161260f60408601826124cb565b50606083015161262260608601826124cb565b50608083015161263560808601826124cb565b5060a083015184820360a086015261264d8282612590565b91505060c083015184820360c08601526126678282612590565b91505060e083015184820360e08601526126818282612590565b9150508091505092915050565b600060208201905081810360008301526126a881846125c9565b905092915050565b600080604083850312156126c7576126c66121d3565b5b60006126d58582860161236b565b92505060206126e68582860161236b565b9150509250929050565b600080600060608486031215612709576127086121d3565b5b60006127178682870161244a565b93505060206127288682870161244a565b92505060406127398682870161236b565b9150509250925092565b600060208284031215612759576127586121d3565b5b60006127678482850161244a565b91505092915050565b600080fd5b600080fd5b7f4e487b7100000000000000000000000000000000000000000000000000000000600052604160045260246000fd5b6127b2826122de565b810181811067ffffffffffffffff821117156127d1576127d061277a565b5b80604052505050565b60006127e46121c9565b90506127f082826127a9565b919050565b600067ffffffffffffffff8211156128105761280f61277a565b5b612819826122de565b9050602081019050919050565b82818337600083830152505050565b6000612848612843846127f5565b6127da565b90508281526020810184848401111561286457612863612775565b5b61286f848285612826565b509392505050565b600082601f83011261288c5761288b612770565b5b813561289c848260208601612835565b91505092915050565b60008060008060008060c087890312156128c2576128c16121d3565b5b600087013567ffffffffffffffff8111156128e0576128df6121d8565b5b6128ec89828a01612877565b96505060206128fd89828a0161236b565b955050604061290e89828a0161236b565b945050606087013567ffffffffffffffff81111561292f5761292e6121d8565b5b61293b89828a01612877565b935050608087013567ffffffffffffffff81111561295c5761295b6121d8565b5b61296889828a01612877565b92505060a087013567ffffffffffffffff811115612989576129886121d8565b5b61299589828a01612877565b9150509295509295509295565b600080604083850312156129b9576129b86121d3565b5b60006129c78582860161236b565b92505060206129d88582860161244a565b9150509250929050565b6129eb81612262565b81146129f657600080fd5b50565b600081359050612a08816129e2565b92915050565b60008060408385031215612a2557612a246121d3565b5b6000612a338582860161244a565b9250506020612a44858286016129f9565b9150509250929050565b600067ffffffffffffffff821115612a6957612a6861277a565b5b612a72826122de565b9050602081019050919050565b6000612a92612a8d84612a4e565b6127da565b905082815260208101848484011115612aae57612aad612775565b5b612ab9848285612826565b509392505050565b600082601f830112612ad657612ad5612770565b5b8135612ae6848260208601612a7f565b91505092915050565b60008060008060808587031215612b0957612b086121d3565b5b6000612b178782880161244a565b9450506020612b288782880161244a565b9350506040612b398782880161236b565b925050606085013567ffffffffffffffff811115612b5a57612b596121d8565b5b612b6687828801612ac1565b91505092959194509250565b60008060408385031215612b8957612b886121d3565b5b6000612b978582860161244a565b9250506020612ba88582860161244a565b9150509250929050565b7f4e487b7100000000000000000000000000000000000000000000000000000000600052602260045260246000fd5b60006002820490506001821680612bf957607f821691505b602082108103612c0c57612c0b612bb2565b5b50919050565b7f4552433732313a20617070726f76616c20746f2063757272656e74206f776e6560008201527f7200000000000000000000000000000000000000000000000000000000000000602082015250565b6000612c6e6021836122a3565b9150612c7982612c12565b604082019050919050565b60006020820190508181036000830152612c9d81612c61565b9050919050565b7f4552433732313a20617070726f76652063616c6c6572206973206e6f7420746f60008201527f6b656e206f776e6572206f7220617070726f76656420666f7220616c6c000000602082015250565b6000612d00603d836122a3565b9150612d0b82612ca4565b604082019050919050565b60006020820190508181036000830152612d2f81612cf3565b9050919050565b7f4e487b7100000000000000000000000000000000000000000000000000000000600052601160045260246000fd5b6000612d708261234a565b9150612d7b8361234a565b9250828203905081811115612d9357612d92612d36565b5b92915050565b6000612da48261234a565b91507fffffffffffffffffffffffffffffffffffffffffffffffffffffffffffffffff8203612dd657612dd5612d36565b5b600182019050919050565b7f4552433732313a2063616c6c6572206973206e6f7420746f6b656e206f776e6560008201527f72206f7220617070726f76656400000000000000000000000000000000000000602082015250565b6000612e3d602d836122a3565b9150612e4882612de1565b604082019050919050565b60006020820190508181036000830152612e6c81612e30565b9050919050565b600081905092915050565b50565b6000612e8e600083612e73565b9150612e9982612e7e565b600082019050919050565b6000612eaf82612e81565b9150819050919050565b7f4552433732313a20696e76616c696420746f6b656e2049440000000000000000600082015250565b6000612eef6018836122a3565b9150612efa82612eb9565b602082019050919050565b60006020820190508181036000830152612f1e81612ee2565b9050919050565b7f4552433732313a2061646472657373207a65726f206973206e6f74206120766160008201527f6c6964206f776e65720000000000000000000000000000000000000000000000602082015250565b6000612f816029836122a3565b9150612f8c82612f25565b604082019050919050565b60006020820190508181036000830152612fb081612f74565b9050919050565b60008190508160005260206000209050919050565b60006020601f8301049050919050565b600082821b905092915050565b6000600883026130197fffffffffffffffffffffffffffffffffffffffffffffffffffffffffffffffff82612fdc565b6130238683612fdc565b95508019841693508086168417925050509392505050565b6000819050919050565b600061306061305b6130568461234a565b61303b565b61234a565b9050919050565b6000819050919050565b61307a83613045565b61308e61308682613067565b848454612fe9565b825550505050565b600090565b6130a3613096565b6130ae818484613071565b505050565b5b818110156130d2576130c760008261309b565b6001810190506130b4565b5050565b601f821115613117576130e881612fb7565b6130f184612fcc565b81016020851015613100578190505b61311461310c85612fcc565b8301826130b3565b50505b505050565b600082821c905092915050565b600061313a6000198460080261311c565b1980831691505092915050565b60006131538383613129565b9150826002028217905092915050565b61316c82612298565b67ffffffffffffffff8111156131855761318461277a565b5b61318f8254612be1565b61319a8282856130d6565b600060209050601f8311600181146131cd57600084156131bb578287015190505b6131c58582613147565b86555061322d565b601f1984166131db86612fb7565b60005b82811015613203578489015182556001820191506020850194506020810190506131de565b86831015613220578489015161321c601f891682613129565b8355505b6001600288020188555050505b505050505050565b600081905092915050565b600061324b82612298565b6132558185613235565b93506132658185602086016122b4565b80840191505092915050565b600061327d8285613240565b91506132898284613240565b91508190509392505050565b7f4552433732313a207472616e736665722066726f6d20696e636f72726563742060008201527f6f776e6572000000000000000000000000000000000000000000000000000000602082015250565b60006132f16025836122a3565b91506132fc82613295565b604082019050919050565b60006020820190508181036000830152613320816132e4565b9050919050565b7f4552433732313a207472616e7366657220746f20746865207a65726f2061646460008201527f7265737300000000000000000000000000000000000000000000000000000000602082015250565b60006133836024836122a3565b915061338e82613327565b604082019050919050565b600060208201905081810360008301526133b281613376565b9050919050565b7f4552433732313a20617070726f766520746f2063616c6c657200000000000000600082015250565b60006133ef6019836122a3565b91506133fa826133b9565b602082019050919050565b6000602082019050818103600083015261341e816133e2565b9050919050565b7f4552433732313a207472616e7366657220746f206e6f6e20455243373231526560008201527f63656976657220696d706c656d656e7465720000000000000000000000000000602082015250565b60006134816032836122a3565b915061348c82613425565b604082019050919050565b600060208201905081810360008301526134b081613474565b9050919050565b7f4e487b7100000000000000000000000000000000000000000000000000000000600052601260045260246000fd5b600081519050919050565b600082825260208201905092915050565b600061350d826134e6565b61351781856134f1565b93506135278185602086016122b4565b613530816122de565b840191505092915050565b600060808201905061355060008301876123df565b61355d60208301866123df565b61356a6040830185612409565b818103606083015261357c8184613502565b905095945050505050565b60008151905061359681612209565b92915050565b6000602082840312156135b2576135b16121d3565b5b60006135c084828501613587565b91505092915050565b7f4552433732313a206d696e7420746f20746865207a65726f2061646472657373600082015250565b60006135ff6020836122a3565b915061360a826135c9565b602082019050919050565b6000602082019050818103600083015261362e816135f2565b9050919050565b7f4552433732313a20746f6b656e20616c7265616479206d696e74656400000000600082015250565b600061366b601c836122a3565b915061367682613635565b602082019050919050565b6000602082019050818103600083015261369a8161365e565b905091905056fea26469706673582212205b43812b94de9082789ba1f61501efc59830e51ed3c4c1dbff72f91e42b95de364736f6c63430008110033",
  "linkReferences": {},
  "deployedLinkReferences": {}
}